{"contracts/SentryRegistry.sol":{"SentryRegistry":{"abi":[{"inputs":[{"internalType":"address","name":"admin_","type":"address"}],"stateMutability":"nonpayable","type":"constructor"},{"inputs":[{"internalType":"bytes32","name":"userIdHash","type":"bytes32"}],"name":"AlreadyRegistered","type":"error"},{"inputs":[{"internalType":"uint8","name":"personality","type":"uint8"}],"name":"InvalidPersonality","type":"error"},{"inputs":[],"name":"NotAdmin","type":"error"},{"inputs":[{"internalType":"bytes32","name":"userIdHash","type":"bytes32"}],"name":"NotRegistered","type":"error"},{"inputs":[],"name":"ZeroAddress","type":"error"},{"anonymous":false,"inputs":[{"indexed":true,"internalType":"address","name":"previousAdmin","type":"address"},{"indexed":true,"internalType":"address","name":"newAdmin","type":"address"}],"name":"AdminTransferred","type":"event"},{"anonymous":false,"inputs":[{"indexed":true,"internalType":"bytes32","name":"userIdHash","type":"bytes32"},{"indexed":true,"internalType":"address","name":"owner","type":"address"},{"indexed":true,"internalType":"address","name":"wallet","type":"address"},{"indexed":false,"internalType":"uint8","name":"personality","type":"uint8"}],"name":"UserRegistered","type":"event"},{"anonymous":false,"inputs":[{"indexed":true,"internalType":"bytes32","name":"userIdHash","type":"bytes32"},{"indexed":true,"internalType":"address","name":"wallet","type":"address"}],"name":"WalletLinked","type":"event"},{"inputs":[],"name":"admin","outputs":[{"internalType":"address","name":"","type":"address"}],"stateMutability":"view","type":"function"},{"inputs":[{"internalType":"bytes32","name":"userIdHash","type":"bytes32"}],"name":"getProfile","outputs":[{"internalType":"address","name":"wallet","type":"address"},{"internalType":"address","name":"owner","type":"address"},{"internalType":"uint8","name":"personality","type":"uint8"},{"internalType":"bool","name":"registered","type":"bool"}],"stateMutability":"view","type":"function"},{"inputs":[{"internalType":"bytes32","name":"userIdHash","type":"bytes32"}],"name":"isRegistered","outputs":[{"internalType":"bool","name":"","type":"bool"}],"stateMutability":"view","type":"function"},{"inputs":[{"internalType":"bytes32","name":"userIdHash","type":"bytes32"},{"internalType":"address","name":"wallet","type":"address"}],"name":"linkWallet","outputs":[],"stateMutability":"nonpayable","type":"function"},{"inputs":[{"internalType":"bytes32","name":"userIdHash","type":"bytes32"},{"internalType":"address","name":"owner","type":"address"},{"internalType":"uint8","name":"personality","type":"uint8"}],"name":"registerUser","outputs":[],"stateMutability":"nonpayable","type":"function"},{"inputs":[{"internalType":"address","name":"newAdmin","type":"address"}],"name":"transferAdmin","outputs":[],"stateMutability":"nonpayable","type":"function"}],"devdoc":{"kind":"dev","methods":{},"title":"SentryRegistry","version":1},"evm":{"bytecode":{"linkReferences":{},"object":"6080604052348015600e575f5ffd5b50604051610697380380610697833981016040819052602b91609e565b6001600160a01b03811660515760405163d92e233d60e01b815260040160405180910390fd5b600180546001600160a01b0319166001600160a01b0383169081179091556040515f907ff8ccb027dfcd135e000e9d45e6cc2d662578a8825d4c45b5e32e0adf67e79ec6908290a35060c9565b5f6020828403121560ad575f5ffd5b81516001600160a01b038116811460c2575f5ffd5b9392505050565b6105c1806100d65f395ff3fe608060405234801561000f575f5ffd5b5060043610610060575f3560e01c806320cfa7a11461006457806327258b22146100795780636e545067146100ba57806375829def146100cd578063b50991b4146100e0578063f851a44014610184575b5f5ffd5b6100776100723660046104e8565b6101af565b005b6100a5610087366004610512565b5f90815260208190526040902060010154600160a81b900460ff1690565b60405190151581526020015b60405180910390f35b6100776100c8366004610529565b610299565b6100776100db36600461056b565b610420565b61014f6100ee366004610512565b5f9081526020818152604091829020825160808101845281546001600160a01b0390811680835260019093015490811693820184905260ff600160a01b82048116958301869052600160a81b90910416151560609091018190529093919291565b604080516001600160a01b03958616815294909316602085015260ff90911691830191909152151560608201526080016100b1565b600154610197906001600160a01b031681565b6040516001600160a01b0390911681526020016100b1565b6001546001600160a01b031633146101da57604051637bfa4b9f60e01b815260040160405180910390fd5b5f82815260208190526040902060010154600160a81b900460ff1661021a57604051634660068b60e11b8152600481018390526024015b60405180910390fd5b6001600160a01b0381166102415760405163d92e233d60e01b815260040160405180910390fd5b5f8281526020819052604080822080546001600160a01b0319166001600160a01b0385169081179091559051909184917f687d543e9b4bd5e0736eae5d76b7e5abddeebc21bb31e080a955da88288be7859190a35050565b6001546001600160a01b031633146102c457604051637bfa4b9f60e01b815260040160405180910390fd5b5f83815260208190526040902060010154600160a81b900460ff161561030057604051633be57b3960e11b815260048101849052602401610211565b6001600160a01b0382166103275760405163d92e233d60e01b815260040160405180910390fd5b60028160ff16111561035157604051632578153f60e11b815260ff82166004820152602401610211565b604080516080810182525f8082526001600160a01b03858116602080850182815260ff888116878901818152600160608a018181528e8a528987528b8a209a518b546001600160a01b031916908a16178b5594519901805491519451999097166001600160a81b031990911617600160a01b93909216929092021760ff60a81b1916600160a81b9615159690960295909517909255935192835290929186917fca5e0714081ae527f1749f1f401f7bfaaff0c6729b01f0013706da4680c285a1910160405180910390a4505050565b6001546001600160a01b0316331461044b57604051637bfa4b9f60e01b815260040160405180910390fd5b6001600160a01b0381166104725760405163d92e233d60e01b815260040160405180910390fd5b6001546040516001600160a01b038084169216907ff8ccb027dfcd135e000e9d45e6cc2d662578a8825d4c45b5e32e0adf67e79ec6905f90a3600180546001600160a01b0319166001600160a01b0392909216919091179055565b80356001600160a01b03811681146104e3575f5ffd5b919050565b5f5f604083850312156104f9575f5ffd5b82359150610509602084016104cd565b90509250929050565b5f60208284031215610522575f5ffd5b5035919050565b5f5f5f6060848603121561053b575f5ffd5b8335925061054b602085016104cd565b9150604084013560ff81168114610560575f5ffd5b809150509250925092565b5f6020828403121561057b575f5ffd5b610584826104cd565b939250505056fea26469706673582212209cfb7dc9984ba491104154c7a85dda4c22cdae991053582859e0a2da76e6ae3464736f6c63430008220033","opcodes":"PUSH1 0x80 PUSH1 0x40 MSTORE CALLVALUE DUP1 ISZERO PUSH1 0xE JUMPI PUSH0 PUSH0 REVERT JUMPDEST POP PUSH1 0x40 MLOAD PUSH2 0x697 CODESIZE SUB DUP1 PUSH2 0x697 DUP4 CODECOPY DUP2 ADD PUSH1 0x40 DUP2 SWAP1 MSTORE PUSH1 0x2B SWAP2 PUSH1 0x9E JUMP JUMPDEST PUSH1 0x1 PUSH1 0x1 PUSH1 0xA0 SHL SUB DUP2 AND PUSH1 0x51 JUMPI PUSH1 0x40 MLOAD PUSH4 0xD92E233D PUSH1 0xE0 SHL DUP2 MSTORE PUSH1 0x4 ADD PUSH1 0x40 MLOAD DUP1 SWAP2 SUB SWAP1 REVERT JUMPDEST PUSH1 0x1 DUP1 SLOAD PUSH1 0x1 PUSH1 0x1 PUSH1 0xA0 SHL SUB NOT AND PUSH1 0x1 PUSH1 0x1 PUSH1 0xA0 SHL SUB DUP4 AND SWAP1 DUP2 OR SWAP1 SWAP2 SSTORE PUSH1 0x40 MLOAD PUSH0 SWAP1 PUSH32 0xF8CCB027DFCD135E000E9D45E6CC2D662578A8825D4C45B5E32E0ADF67E79EC6 SWAP1 DUP3 SWAP1 LOG3 POP PUSH1 0xC9 JUMP JUMPDEST PUSH0 PUSH1 0x20 DUP3 DUP5 SUB SLT ISZERO PUSH1 0xAD JUMPI PUSH0 PUSH0 REVERT JUMPDEST DUP2 MLOAD PUSH1 0x1 PUSH1 0x1 PUSH1 0xA0 SHL SUB DUP2 AND DUP2 EQ PUSH1 0xC2 JUMPI PUSH0 PUSH0 REVERT JUMPDEST SWAP4 SWAP3 POP POP POP JUMP JUMPDEST PUSH2 0x5C1 DUP1 PUSH2 0xD6 PUSH0 CODECOPY PUSH0 RETURN INVALID PUSH1 0x80 PUSH1 0x40 MSTORE CALLVALUE DUP1 ISZERO PUSH2 0xF JUMPI PUSH0 PUSH0 REVERT JUMPDEST POP PUSH1 0x4 CALLDATASIZE LT PUSH2 0x60 JUMPI PUSH0 CALLDATALOAD PUSH1 0xE0 SHR DUP1 PUSH4 0x20CFA7A1 EQ PUSH2 0x64 JUMPI DUP1 PUSH4 0x27258B22 EQ PUSH2 0x79 JUMPI DUP1 PUSH4 0x6E545067 EQ PUSH2 0xBA JUMPI DUP1 PUSH4 0x75829DEF EQ PUSH2 0xCD JUMPI DUP1 PUSH4 0xB50991B4 EQ PUSH2 0xE0 JUMPI DUP1 PUSH4 0xF851A440 EQ PUSH2 0x184 JUMPI JUMPDEST PUSH0 PUSH0 REVERT JUMPDEST PUSH2 0x77 PUSH2 0x72 CALLDATASIZE PUSH1 0x4 PUSH2 0x4E8 JUMP JUMPDEST PUSH2 0x1AF JUMP JUMPDEST STOP JUMPDEST PUSH2 0xA5 PUSH2 0x87 CALLDATASIZE PUSH1 0x4 PUSH2 0x512 JUMP JUMPDEST PUSH0 SWAP1 DUP2 MSTORE PUSH1 0x20 DUP2 SWAP1 MSTORE PUSH1 0x40 SWAP1 KECCAK256 PUSH1 0x1 ADD SLOAD PUSH1 0x1 PUSH1 0xA8 SHL SWAP1 DIV PUSH1 0xFF AND SWAP1 JUMP JUMPDEST PUSH1 0x40 MLOAD SWAP1 ISZERO ISZERO DUP2 MSTORE PUSH1 0x20 ADD JUMPDEST PUSH1 0x40 MLOAD DUP1 SWAP2 SUB SWAP1 RETURN JUMPDEST PUSH2 0x77 PUSH2 0xC8 CALLDATASIZE PUSH1 0x4 PUSH2 0x529 JUMP JUMPDEST PUSH2 0x299 JUMP JUMPDEST PUSH2 0x77 PUSH2 0xDB CALLDATASIZE PUSH1 0x4 PUSH2 0x56B JUMP JUMPDEST PUSH2 0x420 JUMP JUMPDEST PUSH2 0x14F PUSH2 0xEE CALLDATASIZE PUSH1 0x4 PUSH2 0x512 JUMP JUMPDEST PUSH0 SWAP1 DUP2 MSTORE PUSH1 0x20 DUP2 DUP2 MSTORE PUSH1 0x40 SWAP2 DUP3 SWAP1 KECCAK256 DUP3 MLOAD PUSH1 0x80 DUP2 ADD DUP5 MSTORE DUP2 SLOAD PUSH1 0x1 PUSH1 0x1 PUSH1 0xA0 SHL SUB SWAP1 DUP2 AND DUP1 DUP4 MSTORE PUSH1 0x1 SWAP1 SWAP4 ADD SLOAD SWAP1 DUP2 AND SWAP4 DUP3 ADD DUP5 SWAP1 MSTORE PUSH1 0xFF PUSH1 0x1 PUSH1 0xA0 SHL DUP3 DIV DUP2 AND SWAP6 DUP4 ADD DUP7 SWAP1 MSTORE PUSH1 0x1 PUSH1 0xA8 SHL SWAP1 SWAP2 DIV AND ISZERO ISZERO PUSH1 0x60 SWAP1 SWAP2 ADD DUP2 SWAP1 MSTORE SWAP1 SWAP4 SWAP2 SWAP3 SWAP2 JUMP JUMPDEST PUSH1 0x40 DUP1 MLOAD PUSH1 0x1 PUSH1 0x1 PUSH1 0xA0 SHL SUB SWAP6 DUP7 AND DUP2 MSTORE SWAP5 SWAP1 SWAP4 AND PUSH1 0x20 DUP6 ADD MSTORE PUSH1 0xFF SWAP1 SWAP2 AND SWAP2 DUP4 ADD SWAP2 SWAP1 SWAP2 MSTORE ISZERO ISZERO PUSH1 0x60 DUP3 ADD MSTORE PUSH1 0x80 ADD PUSH2 0xB1 JUMP JUMPDEST PUSH1 0x1 SLOAD PUSH2 0x197 SWAP1 PUSH1 0x1 PUSH1 0x1 PUSH1 0xA0 SHL SUB AND DUP2 JUMP JUMPDEST PUSH1 0x40 MLOAD PUSH1 0x1 PUSH1 0x1 PUSH1 0xA0 SHL SUB SWAP1 SWAP2 AND DUP2 MSTORE PUSH1 0x20 ADD PUSH2 0xB1 JUMP JUMPDEST PUSH1 0x1 SLOAD PUSH1 0x1 PUSH1 0x1 PUSH1 0xA0 SHL SUB AND CALLER EQ PUSH2 0x1DA JUMPI PUSH1 0x40 MLOAD PUSH4 0x7BFA4B9F PUSH1 0xE0 SHL DUP2 MSTORE PUSH1 0x4 ADD PUSH1 0x40 MLOAD DUP1 SWAP2 SUB SWAP1 REVERT JUMPDEST PUSH0 DUP3 DUP2 MSTORE PUSH1 0x20 DUP2 SWAP1 MSTORE PUSH1 0x40 SWAP1 KECCAK256 PUSH1 0x1 ADD SLOAD PUSH1 0x1 PUSH1 0xA8 SHL SWAP1 DIV PUSH1 0xFF AND PUSH2 0x21A JUMPI PUSH1 0x40 MLOAD PUSH4 0x4660068B PUSH1 0xE1 SHL DUP2 MSTORE PUSH1 0x4 DUP2 ADD DUP4 SWAP1 MSTORE PUSH1 0x24 ADD JUMPDEST PUSH1 0x40 MLOAD DUP1 SWAP2 SUB SWAP1 REVERT JUMPDEST PUSH1 0x1 PUSH1 0x1 PUSH1 0xA0 SHL SUB DUP2 AND PUSH2 0x241 JUMPI PUSH1 0x40 MLOAD PUSH4 0xD92E233D PUSH1 0xE0 SHL DUP2 MSTORE PUSH1 0x4 ADD PUSH1 0x40 MLOAD DUP1 SWAP2 SUB SWAP1 REVERT JUMPDEST PUSH0 DUP3 DUP2 MSTORE PUSH1 0x20 DUP2 SWAP1 MSTORE PUSH1 0x40 DUP1 DUP3 KECCAK256 DUP1 SLOAD PUSH1 0x1 PUSH1 0x1 PUSH1 0xA0 SHL SUB NOT AND PUSH1 0x1 PUSH1 0x1 PUSH1 0xA0 SHL SUB DUP6 AND SWAP1 DUP2 OR SWAP1 SWAP2 SSTORE SWAP1 MLOAD SWAP1 SWAP2 DUP5 SWAP2 PUSH32 0x687D543E9B4BD5E0736EAE5D76B7E5ABDDEEBC21BB31E080A955DA88288BE785 SWAP2 SWAP1 LOG3 POP POP JUMP JUMPDEST PUSH1 0x1 SLOAD PUSH1 0x1 PUSH1 0x1 PUSH1 0xA0 SHL SUB AND CALLER EQ PUSH2 0x2C4 JUMPI PUSH1 0x40 MLOAD PUSH4 0x7BFA4B9F PUSH1 0xE0 SHL DUP2 MSTORE PUSH1 0x4 ADD PUSH1 0x40 MLOAD DUP1 SWAP2 SUB SWAP1 REVERT JUMPDEST PUSH0 DUP4 DUP2 MSTORE PUSH1 0x20 DUP2 SWAP1 MSTORE PUSH1 0x40 SWAP1 KECCAK256 PUSH1 0x1 ADD SLOAD PUSH1 0x1 PUSH1 0xA8 SHL SWAP1 DIV PUSH1 0xFF AND ISZERO PUSH2 0x300 JUMPI PUSH1 0x40 MLOAD PUSH4 0x3BE57B39 PUSH1 0xE1 SHL DUP2 MSTORE PUSH1 0x4 DUP2 ADD DUP5 SWAP1 MSTORE PUSH1 0x24 ADD PUSH2 0x211 JUMP JUMPDEST PUSH1 0x1 PUSH1 0x1 PUSH1 0xA0 SHL SUB DUP3 AND PUSH2 0x327 JUMPI PUSH1 0x40 MLOAD PUSH4 0xD92E233D PUSH1 0xE0 SHL DUP2 MSTORE PUSH1 0x4 ADD PUSH1 0x40 MLOAD DUP1 SWAP2 SUB SWAP1 REVERT JUMPDEST PUSH1 0x2 DUP2 PUSH1 0xFF AND GT ISZERO PUSH2 0x351 JUMPI PUSH1 0x40 MLOAD PUSH4 0x2578153F PUSH1 0xE1 SHL DUP2 MSTORE PUSH1 0xFF DUP3 AND PUSH1 0x4 DUP3 ADD MSTORE PUSH1 0x24 ADD PUSH2 0x211 JUMP JUMPDEST PUSH1 0x40 DUP1 MLOAD PUSH1 0x80 DUP2 ADD DUP3 MSTORE PUSH0 DUP1 DUP3 MSTORE PUSH1 0x1 PUSH1 0x1 PUSH1 0xA0 SHL SUB DUP6 DUP2 AND PUSH1 0x20 DUP1 DUP6 ADD DUP3 DUP2 MSTORE PUSH1 0xFF DUP9 DUP2 AND DUP8 DUP10 ADD DUP2 DUP2 MSTORE PUSH1 0x1 PUSH1 0x60 DUP11 ADD DUP2 DUP2 MSTORE DUP15 DUP11 MSTORE DUP10 DUP8 MSTORE DUP12 DUP11 KECCAK256 SWAP11 MLOAD DUP12 SLOAD PUSH1 0x1 PUSH1 0x1 PUSH1 0xA0 SHL SUB NOT AND SWAP1 DUP11 AND OR DUP12 SSTORE SWAP5 MLOAD SWAP10 ADD DUP1 SLOAD SWAP2 MLOAD SWAP5 MLOAD SWAP10 SWAP1 SWAP8 AND PUSH1 0x1 PUSH1 0x1 PUSH1 0xA8 SHL SUB NOT SWAP1 SWAP2 AND OR PUSH1 0x1 PUSH1 0xA0 SHL SWAP4 SWAP1 SWAP3 AND SWAP3 SWAP1 SWAP3 MUL OR PUSH1 0xFF PUSH1 0xA8 SHL NOT AND PUSH1 0x1 PUSH1 0xA8 SHL SWAP7 ISZERO ISZERO SWAP7 SWAP1 SWAP7 MUL SWAP6 SWAP1 SWAP6 OR SWAP1 SWAP3 SSTORE SWAP4 MLOAD SWAP3 DUP4 MSTORE SWAP1 SWAP3 SWAP2 DUP7 SWAP2 PUSH32 0xCA5E0714081AE527F1749F1F401F7BFAAFF0C6729B01F0013706DA4680C285A1 SWAP2 ADD PUSH1 0x40 MLOAD DUP1 SWAP2 SUB SWAP1 LOG4 POP POP POP JUMP JUMPDEST PUSH1 0x1 SLOAD PUSH1 0x1 PUSH1 0x1 PUSH1 0xA0 SHL SUB AND CALLER EQ PUSH2 0x44B JUMPI PUSH1 0x40 MLOAD PUSH4 0x7BFA4B9F PUSH1 0xE0 SHL DUP2 MSTORE PUSH1 0x4 ADD PUSH1 0x40 MLOAD DUP1 SWAP2 SUB SWAP1 REVERT JUMPDEST PUSH1 0x1 PUSH1 0x1 PUSH1 0xA0 SHL SUB DUP2 AND PUSH2 0x472 JUMPI PUSH1 0x40 MLOAD PUSH4 0xD92E233D PUSH1 0xE0 SHL DUP2 MSTORE PUSH1 0x4 ADD PUSH1 0x40 MLOAD DUP1 SWAP2 SUB SWAP1 REVERT JUMPDEST PUSH1 0x1 SLOAD PUSH1 0x40 MLOAD PUSH1 0x1 PUSH1 0x1 PUSH1 0xA0 SHL SUB DUP1 DUP5 AND SWAP3 AND SWAP1 PUSH32 0xF8CCB027DFCD135E000E9D45E6CC2D662578A8825D4C45B5E32E0ADF67E79EC6 SWAP1 PUSH0 SWAP1 LOG3 PUSH1 0x1 DUP1 SLOAD PUSH1 0x1 PUSH1 0x1 PUSH1 0xA0 SHL SUB NOT AND PUSH1 0x1 PUSH1 0x1 PUSH1 0xA0 SHL SUB SWAP3 SWAP1 SWAP3 AND SWAP2 SWAP1 SWAP2 OR SWAP1 SSTORE JUMP JUMPDEST DUP1 CALLDATALOAD PUSH1 0x1 PUSH1 0x1 PUSH1 0xA0 SHL SUB DUP2 AND DUP2 EQ PUSH2 0x4E3 JUMPI PUSH0 PUSH0 REVERT JUMPDEST SWAP2 SWAP1 POP JUMP JUMPDEST PUSH0 PUSH0 PUSH1 0x40 DUP4 DUP6 SUB SLT ISZERO PUSH2 0x4F9 JUMPI PUSH0 PUSH0 REVERT JUMPDEST DUP3 CALLDATALOAD SWAP2 POP PUSH2 0x509 PUSH1 0x20 DUP5 ADD PUSH2 0x4CD JUMP JUMPDEST SWAP1 POP SWAP3 POP SWAP3 SWAP1 POP JUMP JUMPDEST PUSH0 PUSH1 0x20 DUP3 DUP5 SUB SLT ISZERO PUSH2 0x522 JUMPI PUSH0 PUSH0 REVERT JUMPDEST POP CALLDATALOAD SWAP2 SWAP1 POP JUMP JUMPDEST PUSH0 PUSH0 PUSH0 PUSH1 0x60 DUP5 DUP7 SUB SLT ISZERO PUSH2 0x53B JUMPI PUSH0 PUSH0 REVERT JUMPDEST DUP4 CALLDATALOAD SWAP3 POP PUSH2 0x54B PUSH1 0x20 DUP6 ADD PUSH2 0x4CD JUMP JUMPDEST SWAP2 POP PUSH1 0x40 DUP5 ADD CALLDATALOAD PUSH1 0xFF DUP2 AND DUP2 EQ PUSH2 0x560 JUMPI PUSH0 PUSH0 REVERT JUMPDEST DUP1 SWAP2 POP POP SWAP3 POP SWAP3 POP SWAP3 JUMP JUMPDEST PUSH0 PUSH1 0x20 DUP3 DUP5 SUB SLT ISZERO PUSH2 0x57B JUMPI PUSH0 PUSH0 REVERT JUMPDEST PUSH2 0x584 DUP3 PUSH2 0x4CD JUMP JUMPDEST SWAP4 SWAP3 POP POP POP JUMP INVALID LOG2 PUSH5 0x6970667358 0x22 SLT KECCAK256 SWAP13 EXTSTATICCALL PUSH30 0xC9984BA491104154C7A85DDA4C22CDAE991053582859E0A2DA76E6AE3464 PUSH20 0x6F6C634300082200330000000000000000000000 "},"gasEstimates":{"creation":{"codeDepositCost":"294600","executionCost":"infinite","totalCost":"infinite"},"external":{"admin()":"2424","getProfile(bytes32)":"4932","isRegistered(bytes32)":"2462","linkWallet(bytes32,address)":"30557","registerUser(bytes32,address,uint8)":"55850","transferAdmin(address)":"30441"}},"methodIdentifiers":{"admin()":"f851a440","getProfile(bytes32)":"b50991b4","isRegistered(bytes32)":"27258b22","linkWallet(bytes32,address)":"20cfa7a1","registerUser(bytes32,address,uint8)":"6e545067","transferAdmin(address)":"75829def"}},"storageLayout":{"storage":[{"astId":54,"contract":"contracts/SentryRegistry.sol:SentryRegistry","label":"profiles","offset":0,"slot":"0","type":"t_mapping(t_bytes32,t_struct(UserProfile)49_storage)"},{"astId":56,"contract":"contracts/SentryRegistry.sol:SentryRegistry","label":"admin","offset":0,"slot":"1","type":"t_address"}],"types":{"t_address":{"encoding":"inplace","label":"address","numberOfBytes":"20"},"t_bool":{"encoding":"inplace","label":"bool","numberOfBytes":"1"},"t_bytes32":{"encoding":"inplace","label":"bytes32","numberOfBytes":"32"},"t_mapping(t_bytes32,t_struct(UserProfile)49_storage)":{"encoding":"mapping","key":"t_bytes32","label":"mapping(bytes32 => struct SentryRegistry.UserProfile)","numberOfBytes":"32","value":"t_struct(UserProfile)49_storage"},"t_struct(UserProfile)49_storage":{"encoding":"inplace","label":"struct SentryRegistry.UserProfile","members":[{"astId":42,"contract":"contracts/SentryRegistry.sol:SentryRegistry","label":"wallet","offset":0,"slot":"0","type":"t_address"},{"astId":44,"contract":"contracts/SentryRegistry.sol:SentryRegistry","label":"owner","offset":0,"slot":"1","type":"t_address"},{"astId":46,"contract":"contracts/SentryRegistry.sol:SentryRegistry","label":"personality","offset":20,"slot":"1","type":"t_uint8"},{"astId":48,"contract":"contracts/SentryRegistry.sol:SentryRegistry","label":"registered","offset":21,"slot":"1","type":"t_bool"}],"numberOfBytes":"64"},"t_uint8":{"encoding":"inplace","label":"uint8","numberOfBytes":"1"}}},"userdoc":{"kind":"user","methods":{"linkWallet(bytes32,address)":{"notice":"Link the created Keyless Wallet to a registered user."},"registerUser(bytes32,address,uint8)":{"notice":"Register a new user profile (owner + personality; wallet can be set later)."}},"notice":"Decentralized backend for Sentry user profiles (chat-first identity).         Key is keccak256 hash of external user id (e.g. Telegram/WhatsApp).","version":1}}}}